{
  "_format": "hh-sol-artifact-1",
  "contractName": "OrganDonation",
  "sourceName": "contracts/OrganDonation.sol",
  "abi": [
    {
      "anonymous": false,
      "inputs": [
        {
          "indexed": true,
          "internalType": "string",
          "name": "donorId",
          "type": "string"
        },
        {
          "indexed": false,
          "internalType": "string",
          "name": "organType",
          "type": "string"
        },
        {
          "indexed": false,
          "internalType": "string",
          "name": "bloodGroup",
          "type": "string"
        },
        {
          "indexed": false,
          "internalType": "uint256",
          "name": "timestamp",
          "type": "uint256"
        }
      ],
      "name": "DonorRegistered",
      "type": "event"
    },
    {
      "anonymous": false,
      "inputs": [
        {
          "indexed": true,
          "internalType": "string",
          "name": "applicationId",
          "type": "string"
        },
        {
          "indexed": false,
          "internalType": "string",
          "name": "organType",
          "type": "string"
        },
        {
          "indexed": false,
          "internalType": "string",
          "name": "providingHospital",
          "type": "string"
        },
        {
          "indexed": false,
          "internalType": "string",
          "name": "requestingHospital",
          "type": "string"
        },
        {
          "indexed": false,
          "internalType": "string",
          "name": "patientName",
          "type": "string"
        },
        {
          "indexed": false,
          "internalType": "uint256",
          "name": "timestamp",
          "type": "uint256"
        }
      ],
      "name": "HospitalOrganAllocated",
      "type": "event"
    },
    {
      "anonymous": false,
      "inputs": [
        {
          "indexed": true,
          "internalType": "string",
          "name": "applicationId",
          "type": "string"
        },
        {
          "indexed": false,
          "internalType": "string",
          "name": "status",
          "type": "string"
        },
        {
          "indexed": false,
          "internalType": "string",
          "name": "note",
          "type": "string"
        },
        {
          "indexed": false,
          "internalType": "uint256",
          "name": "timestamp",
          "type": "uint256"
        }
      ],
      "name": "HospitalOrganStatusUpdated",
      "type": "event"
    },
    {
      "anonymous": false,
      "inputs": [
        {
          "indexed": true,
          "internalType": "string",
          "name": "allocationId",
          "type": "string"
        },
        {
          "indexed": false,
          "internalType": "string",
          "name": "donorId",
          "type": "string"
        },
        {
          "indexed": false,
          "internalType": "string",
          "name": "recipientId",
          "type": "string"
        },
        {
          "indexed": false,
          "internalType": "string",
          "name": "organType",
          "type": "string"
        },
        {
          "indexed": false,
          "internalType": "uint256",
          "name": "timestamp",
          "type": "uint256"
        }
      ],
      "name": "OrganAllocated",
      "type": "event"
    },
    {
      "anonymous": false,
      "inputs": [
        {
          "indexed": true,
          "internalType": "string",
          "name": "listingId",
          "type": "string"
        },
        {
          "indexed": false,
          "internalType": "string",
          "name": "organType",
          "type": "string"
        },
        {
          "indexed": false,
          "internalType": "string",
          "name": "bloodGroup",
          "type": "string"
        },
        {
          "indexed": false,
          "internalType": "string",
          "name": "hospitalName",
          "type": "string"
        },
        {
          "indexed": false,
          "internalType": "uint256",
          "name": "timestamp",
          "type": "uint256"
        }
      ],
      "name": "OrganListed",
      "type": "event"
    },
    {
      "anonymous": false,
      "inputs": [
        {
          "indexed": true,
          "internalType": "string",
          "name": "donorId",
          "type": "string"
        },
        {
          "indexed": false,
          "internalType": "string",
          "name": "status",
          "type": "string"
        },
        {
          "indexed": false,
          "internalType": "uint256",
          "name": "timestamp",
          "type": "uint256"
        }
      ],
      "name": "OrganStatusUpdated",
      "type": "event"
    },
    {
      "anonymous": false,
      "inputs": [
        {
          "indexed": true,
          "internalType": "string",
          "name": "recipientId",
          "type": "string"
        },
        {
          "indexed": false,
          "internalType": "string",
          "name": "organNeeded",
          "type": "string"
        },
        {
          "indexed": false,
          "internalType": "string",
          "name": "bloodGroup",
          "type": "string"
        },
        {
          "indexed": false,
          "internalType": "uint8",
          "name": "priorityLevel",
          "type": "uint8"
        },
        {
          "indexed": false,
          "internalType": "uint256",
          "name": "timestamp",
          "type": "uint256"
        }
      ],
      "name": "RecipientRegistered",
      "type": "event"
    },
    {
      "anonymous": false,
      "inputs": [
        {
          "indexed": true,
          "internalType": "string",
          "name": "allocationId",
          "type": "string"
        },
        {
          "indexed": false,
          "internalType": "string",
          "name": "donorId",
          "type": "string"
        },
        {
          "indexed": false,
          "internalType": "string",
          "name": "recipientId",
          "type": "string"
        },
        {
          "indexed": false,
          "internalType": "uint256",
          "name": "timestamp",
          "type": "uint256"
        }
      ],
      "name": "SmartAllocationCompleted",
      "type": "event"
    },
    {
      "anonymous": false,
      "inputs": [
        {
          "indexed": true,
          "internalType": "string",
          "name": "transplantId",
          "type": "string"
        },
        {
          "indexed": false,
          "internalType": "string",
          "name": "allocationId",
          "type": "string"
        },
        {
          "indexed": false,
          "internalType": "string",
          "name": "hospitalId",
          "type": "string"
        },
        {
          "indexed": false,
          "internalType": "uint256",
          "name": "timestamp",
          "type": "uint256"
        }
      ],
      "name": "TransplantCompleted",
      "type": "event"
    },
    {
      "inputs": [
        {
          "internalType": "string",
          "name": "",
          "type": "string"
        }
      ],
      "name": "allocations",
      "outputs": [
        {
          "internalType": "string",
          "name": "allocationId",
          "type": "string"
        },
        {
          "internalType": "string",
          "name": "donorId",
          "type": "string"
        },
        {
          "internalType": "string",
          "name": "recipientId",
          "type": "string"
        },
        {
          "internalType": "string",
          "name": "organType",
          "type": "string"
        },
        {
          "internalType": "uint256",
          "name": "timestamp",
          "type": "uint256"
        },
        {
          "internalType": "bool",
          "name": "isConfirmed",
          "type": "bool"
        }
      ],
      "stateMutability": "view",
      "type": "function"
    },
    {
      "inputs": [
        {
          "internalType": "string",
          "name": "_allocationId",
          "type": "string"
        },
        {
          "internalType": "string",
          "name": "_donorId",
          "type": "string"
        },
        {
          "internalType": "string",
          "name": "_recipientId",
          "type": "string"
        },
        {
          "internalType": "string",
          "name": "_organType",
          "type": "string"
        }
      ],
      "name": "autoAllocateOrgan",
      "outputs": [],
      "stateMutability": "nonpayable",
      "type": "function"
    },
    {
      "inputs": [
        {
          "internalType": "string",
          "name": "_transplantId",
          "type": "string"
        },
        {
          "internalType": "string",
          "name": "_allocationId",
          "type": "string"
        },
        {
          "internalType": "string",
          "name": "_hospitalId",
          "type": "string"
        }
      ],
      "name": "confirmTransplant",
      "outputs": [],
      "stateMutability": "nonpayable",
      "type": "function"
    },
    {
      "inputs": [
        {
          "internalType": "uint256",
          "name": "",
          "type": "uint256"
        }
      ],
      "name": "donorIds",
      "outputs": [
        {
          "internalType": "string",
          "name": "",
          "type": "string"
        }
      ],
      "stateMutability": "view",
      "type": "function"
    },
    {
      "inputs": [
        {
          "internalType": "string",
          "name": "",
          "type": "string"
        }
      ],
      "name": "donors",
      "outputs": [
        {
          "internalType": "string",
          "name": "donorId",
          "type": "string"
        },
        {
          "internalType": "string",
          "name": "organType",
          "type": "string"
        },
        {
          "internalType": "string",
          "name": "bloodGroup",
          "type": "string"
        },
        {
          "internalType": "uint256",
          "name": "timestamp",
          "type": "uint256"
        },
        {
          "internalType": "bool",
          "name": "isActive",
          "type": "bool"
        }
      ],
      "stateMutability": "view",
      "type": "function"
    },
    {
      "inputs": [
        {
          "internalType": "string",
          "name": "_allocationId",
          "type": "string"
        }
      ],
      "name": "getAllocation",
      "outputs": [
        {
          "components": [
            {
              "internalType": "string",
              "name": "allocationId",
              "type": "string"
            },
            {
              "internalType": "string",
              "name": "donorId",
              "type": "string"
            },
            {
              "internalType": "string",
              "name": "recipientId",
              "type": "string"
            },
            {
              "internalType": "string",
              "name": "organType",
              "type": "string"
            },
            {
              "internalType": "uint256",
              "name": "timestamp",
              "type": "uint256"
            },
            {
              "internalType": "bool",
              "name": "isConfirmed",
              "type": "bool"
            }
          ],
          "internalType": "struct OrganDonation.Allocation",
          "name": "",
          "type": "tuple"
        }
      ],
      "stateMutability": "view",
      "type": "function"
    },
    {
      "inputs": [],
      "name": "getAvailableDonors",
      "outputs": [
        {
          "internalType": "string[]",
          "name": "",
          "type": "string[]"
        }
      ],
      "stateMutability": "view",
      "type": "function"
    },
    {
      "inputs": [
        {
          "internalType": "string",
          "name": "_donorId",
          "type": "string"
        }
      ],
      "name": "getDonor",
      "outputs": [
        {
          "components": [
            {
              "internalType": "string",
              "name": "donorId",
              "type": "string"
            },
            {
              "internalType": "string",
              "name": "organType",
              "type": "string"
            },
            {
              "internalType": "string",
              "name": "bloodGroup",
              "type": "string"
            },
            {
              "internalType": "uint256",
              "name": "timestamp",
              "type": "uint256"
            },
            {
              "internalType": "bool",
              "name": "isActive",
              "type": "bool"
            }
          ],
          "internalType": "struct OrganDonation.Donor",
          "name": "",
          "type": "tuple"
        }
      ],
      "stateMutability": "view",
      "type": "function"
    },
    {
      "inputs": [],
      "name": "getDonorCount",
      "outputs": [
        {
          "internalType": "uint256",
          "name": "",
          "type": "uint256"
        }
      ],
      "stateMutability": "view",
      "type": "function"
    },
    {
      "inputs": [
        {
          "internalType": "string",
          "name": "_donorId",
          "type": "string"
        }
      ],
      "name": "getOrganLifecycle",
      "outputs": [
        {
          "components": [
            {
              "internalType": "string",
              "name": "donorId",
              "type": "string"
            },
            {
              "internalType": "string",
              "name": "status",
              "type": "string"
            },
            {
              "internalType": "uint256",
              "name": "timestamp",
              "type": "uint256"
            }
          ],
          "internalType": "struct OrganDonation.OrganStatus[]",
          "name": "",
          "type": "tuple[]"
        }
      ],
      "stateMutability": "view",
      "type": "function"
    },
    {
      "inputs": [
        {
          "internalType": "string",
          "name": "_recipientId",
          "type": "string"
        }
      ],
      "name": "getRecipient",
      "outputs": [
        {
          "components": [
            {
              "internalType": "string",
              "name": "recipientId",
              "type": "string"
            },
            {
              "internalType": "string",
              "name": "organNeeded",
              "type": "string"
            },
            {
              "internalType": "string",
              "name": "bloodGroup",
              "type": "string"
            },
            {
              "internalType": "uint8",
              "name": "priorityLevel",
              "type": "uint8"
            },
            {
              "internalType": "uint256",
              "name": "timestamp",
              "type": "uint256"
            },
            {
              "internalType": "bool",
              "name": "isActive",
              "type": "bool"
            }
          ],
          "internalType": "struct OrganDonation.Recipient",
          "name": "",
          "type": "tuple"
        }
      ],
      "stateMutability": "view",
      "type": "function"
    },
    {
      "inputs": [],
      "name": "getRecipientCount",
      "outputs": [
        {
          "internalType": "uint256",
          "name": "",
          "type": "uint256"
        }
      ],
      "stateMutability": "view",
      "type": "function"
    },
    {
      "inputs": [
        {
          "internalType": "string",
          "name": "_transplantId",
          "type": "string"
        }
      ],
      "name": "getTransplant",
      "outputs": [
        {
          "components": [
            {
              "internalType": "string",
              "name": "transplantId",
              "type": "string"
            },
            {
              "internalType": "string",
              "name": "allocationId",
              "type": "string"
            },
            {
              "internalType": "string",
              "name": "hospitalId",
              "type": "string"
            },
            {
              "internalType": "uint256",
              "name": "timestamp",
              "type": "uint256"
            },
            {
              "internalType": "bool",
              "name": "isCompleted",
              "type": "bool"
            }
          ],
          "internalType": "struct OrganDonation.Transplant",
          "name": "",
          "type": "tuple"
        }
      ],
      "stateMutability": "view",
      "type": "function"
    },
    {
      "inputs": [],
      "name": "getWaitingRecipients",
      "outputs": [
        {
          "internalType": "string[]",
          "name": "",
          "type": "string[]"
        }
      ],
      "stateMutability": "view",
      "type": "function"
    },
    {
      "inputs": [
        {
          "internalType": "string",
          "name": "",
          "type": "string"
        },
        {
          "internalType": "uint256",
          "name": "",
          "type": "uint256"
        }
      ],
      "name": "organLifecycle",
      "outputs": [
        {
          "internalType": "string",
          "name": "donorId",
          "type": "string"
        },
        {
          "internalType": "string",
          "name": "status",
          "type": "string"
        },
        {
          "internalType": "uint256",
          "name": "timestamp",
          "type": "uint256"
        }
      ],
      "stateMutability": "view",
      "type": "function"
    },
    {
      "inputs": [
        {
          "internalType": "uint256",
          "name": "",
          "type": "uint256"
        }
      ],
      "name": "recipientIds",
      "outputs": [
        {
          "internalType": "string",
          "name": "",
          "type": "string"
        }
      ],
      "stateMutability": "view",
      "type": "function"
    },
    {
      "inputs": [
        {
          "internalType": "string",
          "name": "",
          "type": "string"
        }
      ],
      "name": "recipients",
      "outputs": [
        {
          "internalType": "string",
          "name": "recipientId",
          "type": "string"
        },
        {
          "internalType": "string",
          "name": "organNeeded",
          "type": "string"
        },
        {
          "internalType": "string",
          "name": "bloodGroup",
          "type": "string"
        },
        {
          "internalType": "uint8",
          "name": "priorityLevel",
          "type": "uint8"
        },
        {
          "internalType": "uint256",
          "name": "timestamp",
          "type": "uint256"
        },
        {
          "internalType": "bool",
          "name": "isActive",
          "type": "bool"
        }
      ],
      "stateMutability": "view",
      "type": "function"
    },
    {
      "inputs": [
        {
          "internalType": "string",
          "name": "_applicationId",
          "type": "string"
        },
        {
          "internalType": "string",
          "name": "_organType",
          "type": "string"
        },
        {
          "internalType": "string",
          "name": "_providingHospital",
          "type": "string"
        },
        {
          "internalType": "string",
          "name": "_requestingHospital",
          "type": "string"
        },
        {
          "internalType": "string",
          "name": "_patientName",
          "type": "string"
        }
      ],
      "name": "recordHospitalAllocation",
      "outputs": [],
      "stateMutability": "nonpayable",
      "type": "function"
    },
    {
      "inputs": [
        {
          "internalType": "string",
          "name": "_listingId",
          "type": "string"
        },
        {
          "internalType": "string",
          "name": "_organType",
          "type": "string"
        },
        {
          "internalType": "string",
          "name": "_bloodGroup",
          "type": "string"
        },
        {
          "internalType": "string",
          "name": "_hospitalName",
          "type": "string"
        }
      ],
      "name": "recordOrganListing",
      "outputs": [],
      "stateMutability": "nonpayable",
      "type": "function"
    },
    {
      "inputs": [
        {
          "internalType": "string",
          "name": "_applicationId",
          "type": "string"
        },
        {
          "internalType": "string",
          "name": "_status",
          "type": "string"
        },
        {
          "internalType": "string",
          "name": "_note",
          "type": "string"
        }
      ],
      "name": "recordOrganStatusUpdate",
      "outputs": [],
      "stateMutability": "nonpayable",
      "type": "function"
    },
    {
      "inputs": [
        {
          "internalType": "string",
          "name": "_donorId",
          "type": "string"
        },
        {
          "internalType": "string",
          "name": "_organType",
          "type": "string"
        },
        {
          "internalType": "string",
          "name": "_bloodGroup",
          "type": "string"
        }
      ],
      "name": "registerDonor",
      "outputs": [],
      "stateMutability": "nonpayable",
      "type": "function"
    },
    {
      "inputs": [
        {
          "internalType": "string",
          "name": "_recipientId",
          "type": "string"
        },
        {
          "internalType": "string",
          "name": "_organNeeded",
          "type": "string"
        },
        {
          "internalType": "string",
          "name": "_bloodGroup",
          "type": "string"
        },
        {
          "internalType": "uint8",
          "name": "_priorityLevel",
          "type": "uint8"
        }
      ],
      "name": "registerRecipient",
      "outputs": [],
      "stateMutability": "nonpayable",
      "type": "function"
    },
    {
      "inputs": [],
      "name": "smartAutoAllocate",
      "outputs": [
        {
          "internalType": "string",
          "name": "",
          "type": "string"
        }
      ],
      "stateMutability": "nonpayable",
      "type": "function"
    },
    {
      "inputs": [
        {
          "internalType": "string",
          "name": "",
          "type": "string"
        }
      ],
      "name": "transplants",
      "outputs": [
        {
          "internalType": "string",
          "name": "transplantId",
          "type": "string"
        },
        {
          "internalType": "string",
          "name": "allocationId",
          "type": "string"
        },
        {
          "internalType": "string",
          "name": "hospitalId",
          "type": "string"
        },
        {
          "internalType": "uint256",
          "name": "timestamp",
          "type": "uint256"
        },
        {
          "internalType": "bool",
          "name": "isCompleted",
          "type": "bool"
        }
      ],
      "stateMutability": "view",
      "type": "function"
    },
    {
      "inputs": [
        {
          "internalType": "string",
          "name": "_donorId",
          "type": "string"
        },
        {
          "internalType": "string",
          "name": "_status",
          "type": "string"
        }
      ],
      "name": "updateOrganStatus",
      "outputs": [],
      "stateMutability": "nonpayable",
      "type": "function"
    }
  ],
  "bytecode": "0x608060405234801561001057600080fd5b506151f3806100206000396000f3fe608060405234801561001057600080fd5b50600436106101735760003560e01c806367647e0c116100de5780639f553a0c11610097578063abbac36711610071578063abbac367146104d0578063af99b63f146104ec578063bb96bb861461050a578063dc8acc121461052657610173565b80639f553a0c14610450578063a9f1b8c514610480578063aa7bcc24146104b257610173565b806367647e0c1461037c578063681417891461039857806369bc2f1e146103c857806386ed221e146103e65780638a8c4493146104045780638c443eea1461042057610173565b806320a9ad4b1161013057806320a9ad4b14610267578063271af61a1461029757806331dad732146102c757806341aa3426146102f757806342f4807d1461032c5780635d40a91e1461034857610173565b806302c35e8e14610178578063068fe972146101a857806308068b12146101dd5780630db67c2a146102115780630feebf841461022d57806318d3b3d214610249575b600080fd5b610192600480360381019061018d9190613929565b610542565b60405161019f9190613ac3565b60405180910390f35b6101c260048036038101906101bd9190613929565b6107e7565b6040516101d496959493929190613b69565b60405180910390f35b6101f760048036038101906101f29190613929565b6109eb565b604051610208959493929190613bdf565b60405180910390f35b61022b60048036038101906102269190613c73565b610bdc565b005b61024760048036038101906102429190613d2e565b610d8f565b005b610251610de5565b60405161025e9190613e97565b60405180910390f35b610281600480360381019061027c9190613929565b611011565b60405161028e9190613fd2565b60405180910390f35b6102b160048036038101906102ac9190614020565b6111bc565b6040516102be919061404d565b60405180910390f35b6102e160048036038101906102dc9190613929565b611268565b6040516102ee91906140f3565b60405180910390f35b610311600480360381019061030c9190613929565b61147b565b60405161032396959493929190614115565b60405180910390f35b61034660048036038101906103419190613d2e565b6116fa565b005b610362600480360381019061035d9190613929565b61199c565b604051610373959493929190613bdf565b60405180910390f35b61039660048036038101906103919190614192565b611b8d565b005b6103b260048036038101906103ad9190613929565b611fa2565b6040516103bf919061430f565b60405180910390f35b6103d06121d2565b6040516103dd9190614331565b60405180910390f35b6103ee6121df565b6040516103fb919061404d565b60405180910390f35b61041e6004803603810190610419919061434c565b612a5d565b005b61043a60048036038101906104359190614020565b612ab9565b604051610447919061404d565b60405180910390f35b61046a60048036038101906104659190613929565b612b65565b60405161047791906144d7565b60405180910390f35b61049a600480360381019061049591906144f9565b612d78565b6040516104a993929190614555565b60405180910390f35b6104ba612ee5565b6040516104c79190613e97565b60405180910390f35b6104ea60048036038101906104e5919061459a565b613111565b005b6104f4613242565b6040516105019190614331565b60405180910390f35b610524600480360381019061051f9190614192565b61324f565b005b610540600480360381019061053b9190613d2e565b6132a8565b005b61054a6136fa565b60028260405161055a919061464e565b90815260200160405180910390206040518060c001604052908160008201805461058390614694565b80601f01602080910402602001604051908101604052809291908181526020018280546105af90614694565b80156105fc5780601f106105d1576101008083540402835291602001916105fc565b820191906000526020600020905b8154815290600101906020018083116105df57829003601f168201915b5050505050815260200160018201805461061590614694565b80601f016020809104026020016040519081016040528092919081815260200182805461064190614694565b801561068e5780601f106106635761010080835404028352916020019161068e565b820191906000526020600020905b81548152906001019060200180831161067157829003601f168201915b505050505081526020016002820180546106a790614694565b80601f01602080910402602001604051908101604052809291908181526020018280546106d390614694565b80156107205780601f106106f557610100808354040283529160200191610720565b820191906000526020600020905b81548152906001019060200180831161070357829003601f168201915b5050505050815260200160038201805461073990614694565b80601f016020809104026020016040519081016040528092919081815260200182805461076590614694565b80156107b25780601f10610787576101008083540402835291602001916107b2565b820191906000526020600020905b81548152906001019060200180831161079557829003601f168201915b50505050508152602001600482015481526020016005820160009054906101000a900460ff1615151515815250509050919050565b60018180516020810182018051848252602083016020850120818352809550505050505060009150905080600001805461082090614694565b80601f016020809104026020016040519081016040528092919081815260200182805461084c90614694565b80156108995780601f1061086e57610100808354040283529160200191610899565b820191906000526020600020905b81548152906001019060200180831161087c57829003601f168201915b5050505050908060010180546108ae90614694565b80601f01602080910402602001604051908101604052809291908181526020018280546108da90614694565b80156109275780601f106108fc57610100808354040283529160200191610927565b820191906000526020600020905b81548152906001019060200180831161090a57829003601f168201915b50505050509080600201805461093c90614694565b80601f016020809104026020016040519081016040528092919081815260200182805461096890614694565b80156109b55780601f1061098a576101008083540402835291602001916109b5565b820191906000526020600020905b81548152906001019060200180831161099857829003601f168201915b5050505050908060030160009054906101000a900460ff16908060040154908060050160009054906101000a900460ff16905086565b600381805160208101820180518482526020830160208501208183528095505050505050600091509050806000018054610a2490614694565b80601f0160208091040260200160405190810160405280929190818152602001828054610a5090614694565b8015610a9d5780601f10610a7257610100808354040283529160200191610a9d565b820191906000526020600020905b815481529060010190602001808311610a8057829003601f168201915b505050505090806001018054610ab290614694565b80601f0160208091040260200160405190810160405280929190818152602001828054610ade90614694565b8015610b2b5780601f10610b0057610100808354040283529160200191610b2b565b820191906000526020600020905b815481529060010190602001808311610b0e57829003601f168201915b505050505090806002018054610b4090614694565b80601f0160208091040260200160405190810160405280929190818152602001828054610b6c90614694565b8015610bb95780601f10610b8e57610100808354040283529160200191610bb9565b820191906000526020600020905b815481529060010190602001808311610b9c57829003601f168201915b5050505050908060030154908060040160009054906101000a900460ff16905085565b6000845111610c20576040517f08c379a0000000000000000000000000000000000000000000000000000000008152600401610c1790614711565b60405180910390fd5b6040518060c001604052808581526020018481526020018381526020018260ff16815260200142815260200160011515815250600185604051610c63919061464e565b90815260200160405180910390206000820151816000019081610c8691906148dd565b506020820151816001019081610c9c91906148dd565b506040820151816002019081610cb291906148dd565b5060608201518160030160006101000a81548160ff021916908360ff1602179055506080820151816004015560a08201518160050160006101000a81548160ff021916908315150217905550905050600684908060018154018082558091505060019003906000526020600020016000909190919091509081610d3591906148dd565b5083604051610d44919061464e565b60405180910390207fe2311a808ca44aab8caa7ccbd94e91e86f0bb5350ba318b763e26e6bdc73920184848442604051610d8194939291906149af565b60405180910390a250505050565b82604051610d9d919061464e565b60405180910390207f05951ccd28279ada061650c470611251fc77b0c01eccfe75f256104244571c44838342604051610dd893929190614555565b60405180910390a2505050565b60606000805b600580549050811015610e6b57600060058281548110610e0e57610e0d614a02565b5b90600052602060002001604051610e259190614ab4565b908152602001604051809103902060040160009054906101000a900460ff1615610e58578180610e5490614afa565b9250505b8080610e6390614afa565b915050610deb565b5060008167ffffffffffffffff811115610e8857610e876137fe565b5b604051908082528060200260200182016040528015610ebb57816020015b6060815260200190600190039081610ea65790505b5090506000805b60058054905081101561100757600060058281548110610ee557610ee4614a02565b5b90600052602060002001604051610efc9190614ab4565b908152602001604051809103902060040160009054906101000a900460ff1615610ff45760058181548110610f3457610f33614a02565b5b906000526020600020018054610f4990614694565b80601f0160208091040260200160405190810160405280929190818152602001828054610f7590614694565b8015610fc25780601f10610f9757610100808354040283529160200191610fc2565b820191906000526020600020905b815481529060010190602001808311610fa557829003601f168201915b5050505050838381518110610fda57610fd9614a02565b5b60200260200101819052508180610ff090614afa565b9250505b8080610fff90614afa565b915050610ec2565b5081935050505090565b6060600482604051611023919061464e565b9081526020016040518091039020805480602002602001604051908101604052809291908181526020016000905b828210156111b1578382906000526020600020906003020160405180606001604052908160008201805461108490614694565b80601f01602080910402602001604051908101604052809291908181526020018280546110b090614694565b80156110fd5780601f106110d2576101008083540402835291602001916110fd565b820191906000526020600020905b8154815290600101906020018083116110e057829003601f168201915b5050505050815260200160018201805461111690614694565b80601f016020809104026020016040519081016040528092919081815260200182805461114290614694565b801561118f5780601f106111645761010080835404028352916020019161118f565b820191906000526020600020905b81548152906001019060200180831161117257829003601f168201915b5050505050815260200160028201548152505081526020019060010190611051565b505050509050919050565b600581815481106111cc57600080fd5b9060005260206000200160009150905080546111e790614694565b80601f016020809104026020016040519081016040528092919081815260200182805461121390614694565b80156112605780601f1061123557610100808354040283529160200191611260565b820191906000526020600020905b81548152906001019060200180831161124357829003601f168201915b505050505081565b611270613732565b600082604051611280919061464e565b90815260200160405180910390206040518060a00160405290816000820180546112a990614694565b80601f01602080910402602001604051908101604052809291908181526020018280546112d590614694565b80156113225780601f106112f757610100808354040283529160200191611322565b820191906000526020600020905b81548152906001019060200180831161130557829003601f168201915b5050505050815260200160018201805461133b90614694565b80601f016020809104026020016040519081016040528092919081815260200182805461136790614694565b80156113b45780601f10611389576101008083540402835291602001916113b4565b820191906000526020600020905b81548152906001019060200180831161139757829003601f168201915b505050505081526020016002820180546113cd90614694565b80601f01602080910402602001604051908101604052809291908181526020018280546113f990614694565b80156114465780601f1061141b57610100808354040283529160200191611446565b820191906000526020600020905b81548152906001019060200180831161142957829003601f168201915b50505050508152602001600382015481526020016004820160009054906101000a900460ff1615151515815250509050919050565b6002818051602081018201805184825260208301602085012081835280955050505050506000915090508060000180546114b490614694565b80601f01602080910402602001604051908101604052809291908181526020018280546114e090614694565b801561152d5780601f106115025761010080835404028352916020019161152d565b820191906000526020600020905b81548152906001019060200180831161151057829003601f168201915b50505050509080600101805461154290614694565b80601f016020809104026020016040519081016040528092919081815260200182805461156e90614694565b80156115bb5780601f10611590576101008083540402835291602001916115bb565b820191906000526020600020905b81548152906001019060200180831161159e57829003601f168201915b5050505050908060020180546115d090614694565b80601f01602080910402602001604051908101604052809291908181526020018280546115fc90614694565b80156116495780601f1061161e57610100808354040283529160200191611649565b820191906000526020600020905b81548152906001019060200180831161162c57829003601f168201915b50505050509080600301805461165e90614694565b80601f016020809104026020016040519081016040528092919081815260200182805461168a90614694565b80156116d75780601f106116ac576101008083540402835291602001916116d7565b820191906000526020600020905b8154815290600101906020018083116116ba57829003601f168201915b5050505050908060040154908060050160009054906101000a900460ff16905086565b600083511161173e576040517f08c379a000000000000000000000000000000000000000000000000000000000815260040161173590614b8e565b60405180910390fd5b6040518060a0016040528084815260200183815260200182815260200142815260200160011515815250600084604051611778919061464e565b9081526020016040518091039020600082015181600001908161179b91906148dd565b5060208201518160010190816117b191906148dd565b5060408201518160020190816117c791906148dd565b506060820151816003015560808201518160040160006101000a81548160ff02191690831515021790555090505060058390806001815401808255809150506001900390600052602060002001600090919091909150908161182991906148dd565b5060048360405161183a919061464e565b908152602001604051809103902060405180606001604052808581526020016040518060400160405280600a81526020017f5265676973746572656400000000000000000000000000000000000000000000815250815260200142815250908060018154018082558091505060019003906000526020600020906003020160009091909190915060008201518160000190816118d691906148dd565b5060208201518160010190816118ec91906148dd565b5060408201518160020155505082604051611907919061464e565b60405180910390207fd6a3cdb66f99236e343cf0f01572104e11ee7c0fb92c62fdb0c0664f892a53a183834260405161194293929190614555565b60405180910390a282604051611958919061464e565b60405180910390207fcd6331280a3abdc473a225d772cb29752fe5f9064f5d0beb5daf3f64f57019ce4260405161198f9190614bfa565b60405180910390a2505050565b6000818051602081018201805184825260208301602085012081835280955050505050506000915090508060000180546119d590614694565b80601f0160208091040260200160405190810160405280929190818152602001828054611a0190614694565b8015611a4e5780601f10611a2357610100808354040283529160200191611a4e565b820191906000526020600020905b815481529060010190602001808311611a3157829003601f168201915b505050505090806001018054611a6390614694565b80601f0160208091040260200160405190810160405280929190818152602001828054611a8f90614694565b8015611adc5780601f10611ab157610100808354040283529160200191611adc565b820191906000526020600020905b815481529060010190602001808311611abf57829003601f168201915b505050505090806002018054611af190614694565b80601f0160208091040260200160405190810160405280929190818152602001828054611b1d90614694565b8015611b6a5780601f10611b3f57610100808354040283529160200191611b6a565b820191906000526020600020905b815481529060010190602001808311611b4d57829003601f168201915b5050505050908060030154908060040160009054906101000a900460ff16905085565b600083604051611b9d919061464e565b908152602001604051809103902060040160009054906101000a900460ff16611bfb576040517f08c379a0000000000000000000000000000000000000000000000000000000008152600401611bf290614c74565b60405180910390fd5b600182604051611c0b919061464e565b908152602001604051809103902060050160009054906101000a900460ff16611c69576040517f08c379a0000000000000000000000000000000000000000000000000000000008152600401611c6090614ce0565b60405180910390fd5b8080519060200120600084604051611c81919061464e565b9081526020016040518091039020600101604051611c9f9190614da3565b604051809103902014611ce7576040517f08c379a0000000000000000000000000000000000000000000000000000000008152600401611cde90614e06565b60405180910390fd5b6040518060c0016040528085815260200184815260200183815260200182815260200142815260200160001515815250600285604051611d27919061464e565b90815260200160405180910390206000820151816000019081611d4a91906148dd565b506020820151816001019081611d6091906148dd565b506040820151816002019081611d7691906148dd565b506060820151816003019081611d8c91906148dd565b506080820151816004015560a08201518160050160006101000a81548160ff02191690831515021790555090505060008084604051611dcb919061464e565b908152602001604051809103902060040160006101000a81548160ff0219169083151502179055506000600183604051611e05919061464e565b908152602001604051809103902060050160006101000a81548160ff021916908315150217905550600483604051611e3d919061464e565b908152602001604051809103902060405180606001604052808581526020016040518060400160405280600981526020017f416c6c6f6361746564000000000000000000000000000000000000000000000081525081526020014281525090806001815401808255809150506001900390600052602060002090600302016000909190919091506000820151816000019081611ed991906148dd565b506020820151816001019081611eef91906148dd565b5060408201518160020155505083604051611f0a919061464e565b60405180910390207f1ec644539d2468dfa59a65133080a38b95b23dc3c56791c32c1fa538d5efd56684848442604051611f479493929190614e26565b60405180910390a282604051611f5d919061464e565b60405180910390207fcd6331280a3abdc473a225d772cb29752fe5f9064f5d0beb5daf3f64f57019ce42604051611f949190614ecc565b60405180910390a250505050565b611faa613763565b600182604051611fba919061464e565b90815260200160405180910390206040518060c0016040529081600082018054611fe390614694565b80601f016020809104026020016040519081016040528092919081815260200182805461200f90614694565b801561205c5780601f106120315761010080835404028352916020019161205c565b820191906000526020600020905b81548152906001019060200180831161203f57829003601f168201915b5050505050815260200160018201805461207590614694565b80601f01602080910402602001604051908101604052809291908181526020018280546120a190614694565b80156120ee5780601f106120c3576101008083540402835291602001916120ee565b820191906000526020600020905b8154815290600101906020018083116120d157829003601f168201915b5050505050815260200160028201805461210790614694565b80601f016020809104026020016040519081016040528092919081815260200182805461213390614694565b80156121805780601f1061215557610100808354040283529160200191612180565b820191906000526020600020905b81548152906001019060200180831161216357829003601f168201915b505050505081526020016003820160009054906101000a900460ff1660ff1660ff168152602001600482015481526020016005820160009054906101000a900460ff1615151515815250509050919050565b6000600580549050905090565b606060006040518060200160405280600081525090506000604051806020016040528060008152509050600060405180602001604052806000815250905060006003905060005b6005805490508110156127325760006005828154811061224957612248614a02565b5b90600052602060002001805461225e90614694565b80601f016020809104026020016040519081016040528092919081815260200182805461228a90614694565b80156122d75780601f106122ac576101008083540402835291602001916122d7565b820191906000526020600020905b8154815290600101906020018083116122ba57829003601f168201915b505050505090506000816040516122ee919061464e565b908152602001604051809103902060040160009054906101000a900460ff16612317575061271f565b60005b60068054905081101561271c5760006006828154811061233d5761233c614a02565b5b90600052602060002001805461235290614694565b80601f016020809104026020016040519081016040528092919081815260200182805461237e90614694565b80156123cb5780601f106123a0576101008083540402835291602001916123cb565b820191906000526020600020905b8154815290600101906020018083116123ae57829003601f168201915b505050505090506001816040516123e2919061464e565b908152602001604051809103902060050160009054906101000a900460ff1661240b5750612709565b60018160405161241b919061464e565b90815260200160405180910390206001016040516124399190614da3565b6040518091039020600084604051612451919061464e565b908152602001604051809103902060010160405161246f9190614da3565b6040518091039020146124825750612709565b6125de600084604051612495919061464e565b908152602001604051809103902060020180546124b190614694565b80601f01602080910402602001604051908101604052809291908181526020018280546124dd90614694565b801561252a5780601f106124ff5761010080835404028352916020019161252a565b820191906000526020600020905b81548152906001019060200180831161250d57829003601f168201915b505050505060018360405161253f919061464e565b9081526020016040518091039020600201805461255b90614694565b80601f016020809104026020016040519081016040528092919081815260200182805461258790614694565b80156125d45780601f106125a9576101008083540402835291602001916125d4565b820191906000526020600020905b8154815290600101906020018083116125b757829003601f168201915b5050505050613629565b6125e85750612709565b8460ff166001826040516125fc919061464e565b908152602001604051809103902060030160009054906101000a900460ff1660ff161161270757600181604051612633919061464e565b908152602001604051809103902060030160009054906101000a900460ff16945082975080965060008360405161266a919061464e565b9081526020016040518091039020600101805461268690614694565b80601f01602080910402602001604051908101604052809291908181526020018280546126b290614694565b80156126ff5780601f106126d4576101008083540402835291602001916126ff565b820191906000526020600020905b8154815290600101906020018083116126e257829003601f168201915b505050505095505b505b808061271490614afa565b91505061231a565b50505b808061272a90614afa565b915050612226565b506000845111612777576040517f08c379a000000000000000000000000000000000000000000000000000000000815260040161276e90614f46565b60405180910390fd5b6000848460405160200161278c929190614ffe565b60405160208183030381529060405290506040518060c00160405280828152602001868152602001858152602001848152602001428152602001600015158152506002826040516127dd919061464e565b9081526020016040518091039020600082015181600001908161280091906148dd565b50602082015181600101908161281691906148dd565b50604082015181600201908161282c91906148dd565b50606082015181600301908161284291906148dd565b506080820151816004015560a08201518160050160006101000a81548160ff02191690831515021790555090505060008086604051612881919061464e565b908152602001604051809103902060040160006101000a81548160ff02191690831515021790555060006001856040516128bb919061464e565b908152602001604051809103902060050160006101000a81548160ff0219169083151502179055506004856040516128f3919061464e565b908152602001604051809103902060405180606001604052808781526020016040518060400160405280600981526020017f416c6c6f636174656400000000000000000000000000000000000000000000008152508152602001428152509080600181540180825580915050600190039060005260206000209060030201600090919091909150600082015181600001908161298f91906148dd565b5060208201518160010190816129a591906148dd565b50604082015181600201555050806040516129c0919061464e565b60405180910390207f1ec644539d2468dfa59a65133080a38b95b23dc3c56791c32c1fa538d5efd566868686426040516129fd9493929190614e26565b60405180910390a284604051612a13919061464e565b60405180910390207fcd6331280a3abdc473a225d772cb29752fe5f9064f5d0beb5daf3f64f57019ce42604051612a4a9190614ecc565b60405180910390a2809550505050505090565b84604051612a6b919061464e565b60405180910390207f1d282c97eca53c38b104c47273ae0227912c9a9923a36f8f229e72577cde8a628585858542604051612aaa959493929190615038565b60405180910390a25050505050565b60068181548110612ac957600080fd5b906000526020600020016000915090508054612ae490614694565b80601f0160208091040260200160405190810160405280929190818152602001828054612b1090614694565b8015612b5d5780601f10612b3257610100808354040283529160200191612b5d565b820191906000526020600020905b815481529060010190602001808311612b4057829003601f168201915b505050505081565b612b6d61379e565b600382604051612b7d919061464e565b90815260200160405180910390206040518060a0016040529081600082018054612ba690614694565b80601f0160208091040260200160405190810160405280929190818152602001828054612bd290614694565b8015612c1f5780601f10612bf457610100808354040283529160200191612c1f565b820191906000526020600020905b815481529060010190602001808311612c0257829003601f168201915b50505050508152602001600182018054612c3890614694565b80601f0160208091040260200160405190810160405280929190818152602001828054612c6490614694565b8015612cb15780601f10612c8657610100808354040283529160200191612cb1565b820191906000526020600020905b815481529060010190602001808311612c9457829003601f168201915b50505050508152602001600282018054612cca90614694565b80601f0160208091040260200160405190810160405280929190818152602001828054612cf690614694565b8015612d435780601f10612d1857610100808354040283529160200191612d43565b820191906000526020600020905b815481529060010190602001808311612d2657829003601f168201915b50505050508152602001600382015481526020016004820160009054906101000a900460ff1615151515815250509050919050565b6004828051602081018201805184825260208301602085012081835280955050505050508181548110612daa57600080fd5b906000526020600020906003020160009150915050806000018054612dce90614694565b80601f0160208091040260200160405190810160405280929190818152602001828054612dfa90614694565b8015612e475780601f10612e1c57610100808354040283529160200191612e47565b820191906000526020600020905b815481529060010190602001808311612e2a57829003601f168201915b505050505090806001018054612e5c90614694565b80601f0160208091040260200160405190810160405280929190818152602001828054612e8890614694565b8015612ed55780601f10612eaa57610100808354040283529160200191612ed5565b820191906000526020600020905b815481529060010190602001808311612eb857829003601f168201915b5050505050908060020154905083565b60606000805b600680549050811015612f6b57600160068281548110612f0e57612f0d614a02565b5b90600052602060002001604051612f259190614ab4565b908152602001604051809103902060050160009054906101000a900460ff1615612f58578180612f5490614afa565b9250505b8080612f6390614afa565b915050612eeb565b5060008167ffffffffffffffff811115612f8857612f876137fe565b5b604051908082528060200260200182016040528015612fbb57816020015b6060815260200190600190039081612fa65790505b5090506000805b60068054905081101561310757600160068281548110612fe557612fe4614a02565b5b90600052602060002001604051612ffc9190614ab4565b908152602001604051809103902060050160009054906101000a900460ff16156130f4576006818154811061303457613033614a02565b5b90600052602060002001805461304990614694565b80601f016020809104026020016040519081016040528092919081815260200182805461307590614694565b80156130c25780601f10613097576101008083540402835291602001916130c2565b820191906000526020600020905b8154815290600101906020018083116130a557829003601f168201915b50505050508383815181106130da576130d9614a02565b5b602002602001018190525081806130f090614afa565b9250505b80806130ff90614afa565b915050612fc2565b5081935050505090565b6000825111613155576040517f08c379a000000000000000000000000000000000000000000000000000000000815260040161314c90614b8e565b60405180910390fd5b600482604051613165919061464e565b9081526020016040518091039020604051806060016040528084815260200183815260200142815250908060018154018082558091505060019003906000526020600020906003020160009091909190915060008201518160000190816131cc91906148dd565b5060208201518160010190816131e291906148dd565b50604082015181600201555050816040516131fd919061464e565b60405180910390207fcd6331280a3abdc473a225d772cb29752fe5f9064f5d0beb5daf3f64f57019ce82426040516132369291906150a7565b60405180910390a25050565b6000600680549050905090565b8360405161325d919061464e565b60405180910390207f486077da2d45cf16be1b7a5590e5760eb8deb83e4e8942e34fc2ef2840f7c41a8484844260405161329a9493929190614e26565b60405180910390a250505050565b6002826040516132b8919061464e565b908152602001604051809103902060050160009054906101000a900460ff1615613317576040517f08c379a000000000000000000000000000000000000000000000000000000000815260040161330e90615123565b60405180910390fd5b6001600283604051613329919061464e565b908152602001604051809103902060050160006101000a81548160ff0219169083151502179055506040518060a001604052808481526020018381526020018281526020014281526020016001151581525060038460405161338b919061464e565b908152602001604051809103902060008201518160000190816133ae91906148dd565b5060208201518160010190816133c491906148dd565b5060408201518160020190816133da91906148dd565b506060820151816003015560808201518160040160006101000a81548160ff021916908315150217905550905050600060028360405161341a919061464e565b9081526020016040518091039020600101805461343690614694565b80601f016020809104026020016040519081016040528092919081815260200182805461346290614694565b80156134af5780601f10613484576101008083540402835291602001916134af565b820191906000526020600020905b81548152906001019060200180831161349257829003601f168201915b505050505090506004816040516134c6919061464e565b908152602001604051809103902060405180606001604052808381526020016040518060400160405280600981526020017f436f6d706c6574656400000000000000000000000000000000000000000000008152508152602001428152509080600181540180825580915050600190039060005260206000209060030201600090919091909150600082015181600001908161356291906148dd565b50602082015181600101908161357891906148dd565b5060408201518160020155505083604051613593919061464e565b60405180910390207f8bd79ef7776fdae24fe7c2dba65f621374bb5ce49f7140c938fb3266abe8dde38484426040516135ce93929190614555565b60405180910390a2806040516135e4919061464e565b60405180910390207fcd6331280a3abdc473a225d772cb29752fe5f9064f5d0beb5daf3f64f57019ce4260405161361b919061518f565b60405180910390a250505050565b60006040518060400160405280600281526020017f4f2d0000000000000000000000000000000000000000000000000000000000008152508051906020012083805190602001200361367e57600190506136f4565b6040518060400160405280600381526020017f41422b0000000000000000000000000000000000000000000000000000000000815250805190602001208280519060200120036136d157600190506136f4565b81805190602001208380519060200120036136ef57600190506136f4565b600090505b92915050565b6040518060c0016040528060608152602001606081526020016060815260200160608152602001600081526020016000151581525090565b6040518060a00160405280606081526020016060815260200160608152602001600081526020016000151581525090565b6040518060c00160405280606081526020016060815260200160608152602001600060ff168152602001600081526020016000151581525090565b6040518060a00160405280606081526020016060815260200160608152602001600081526020016000151581525090565b6000604051905090565b600080fd5b600080fd5b600080fd5b600080fd5b6000601f19601f8301169050919050565b7f4e487b7100000000000000000000000000000000000000000000000000000000600052604160045260246000fd5b613836826137ed565b810181811067ffffffffffffffff82111715613855576138546137fe565b5b80604052505050565b60006138686137cf565b9050613874828261382d565b919050565b600067ffffffffffffffff821115613894576138936137fe565b5b61389d826137ed565b9050602081019050919050565b82818337600083830152505050565b60006138cc6138c784613879565b61385e565b9050828152602081018484840111156138e8576138e76137e8565b5b6138f38482856138aa565b509392505050565b600082601f8301126139105761390f6137e3565b5b81356139208482602086016138b9565b91505092915050565b60006020828403121561393f5761393e6137d9565b5b600082013567ffffffffffffffff81111561395d5761395c6137de565b5b613969848285016138fb565b91505092915050565b600081519050919050565b600082825260208201905092915050565b60005b838110156139ac578082015181840152602081019050613991565b60008484015250505050565b60006139c382613972565b6139cd818561397d565b93506139dd81856020860161398e565b6139e6816137ed565b840191505092915050565b6000819050919050565b613a04816139f1565b82525050565b60008115159050919050565b613a1f81613a0a565b82525050565b600060c0830160008301518482036000860152613a4282826139b8565b91505060208301518482036020860152613a5c82826139b8565b91505060408301518482036040860152613a7682826139b8565b91505060608301518482036060860152613a9082826139b8565b9150506080830151613aa560808601826139fb565b5060a0830151613ab860a0860182613a16565b508091505092915050565b60006020820190508181036000830152613add8184613a25565b905092915050565b600082825260208201905092915050565b6000613b0182613972565b613b0b8185613ae5565b9350613b1b81856020860161398e565b613b24816137ed565b840191505092915050565b600060ff82169050919050565b613b4581613b2f565b82525050565b613b54816139f1565b82525050565b613b6381613a0a565b82525050565b600060c0820190508181036000830152613b838189613af6565b90508181036020830152613b978188613af6565b90508181036040830152613bab8187613af6565b9050613bba6060830186613b3c565b613bc76080830185613b4b565b613bd460a0830184613b5a565b979650505050505050565b600060a0820190508181036000830152613bf98188613af6565b90508181036020830152613c0d8187613af6565b90508181036040830152613c218186613af6565b9050613c306060830185613b4b565b613c3d6080830184613b5a565b9695505050505050565b613c5081613b2f565b8114613c5b57600080fd5b50565b600081359050613c6d81613c47565b92915050565b60008060008060808587031215613c8d57613c8c6137d9565b5b600085013567ffffffffffffffff811115613cab57613caa6137de565b5b613cb7878288016138fb565b945050602085013567ffffffffffffffff811115613cd857613cd76137de565b5b613ce4878288016138fb565b935050604085013567ffffffffffffffff811115613d0557613d046137de565b5b613d11878288016138fb565b9250506060613d2287828801613c5e565b91505092959194509250565b600080600060608486031215613d4757613d466137d9565b5b600084013567ffffffffffffffff811115613d6557613d646137de565b5b613d71868287016138fb565b935050602084013567ffffffffffffffff811115613d9257613d916137de565b5b613d9e868287016138fb565b925050604084013567ffffffffffffffff811115613dbf57613dbe6137de565b5b613dcb868287016138fb565b9150509250925092565b600081519050919050565b600082825260208201905092915050565b6000819050602082019050919050565b6000613e0d83836139b8565b905092915050565b6000602082019050919050565b6000613e2d82613dd5565b613e378185613de0565b935083602082028501613e4985613df1565b8060005b85811015613e855784840389528151613e668582613e01565b9450613e7183613e15565b925060208a01995050600181019050613e4d565b50829750879550505050505092915050565b60006020820190508181036000830152613eb18184613e22565b905092915050565b600081519050919050565b600082825260208201905092915050565b6000819050602082019050919050565b60006060830160008301518482036000860152613f0282826139b8565b91505060208301518482036020860152613f1c82826139b8565b9150506040830151613f3160408601826139fb565b508091505092915050565b6000613f488383613ee5565b905092915050565b6000602082019050919050565b6000613f6882613eb9565b613f728185613ec4565b935083602082028501613f8485613ed5565b8060005b85811015613fc05784840389528151613fa18582613f3c565b9450613fac83613f50565b925060208a01995050600181019050613f88565b50829750879550505050505092915050565b60006020820190508181036000830152613fec8184613f5d565b905092915050565b613ffd816139f1565b811461400857600080fd5b50565b60008135905061401a81613ff4565b92915050565b600060208284031215614036576140356137d9565b5b60006140448482850161400b565b91505092915050565b600060208201905081810360008301526140678184613af6565b905092915050565b600060a083016000830151848203600086015261408c82826139b8565b915050602083015184820360208601526140a682826139b8565b915050604083015184820360408601526140c082826139b8565b91505060608301516140d560608601826139fb565b5060808301516140e86080860182613a16565b508091505092915050565b6000602082019050818103600083015261410d818461406f565b905092915050565b600060c082019050818103600083015261412f8189613af6565b905081810360208301526141438188613af6565b905081810360408301526141578187613af6565b9050818103606083015261416b8186613af6565b905061417a6080830185613b4b565b61418760a0830184613b5a565b979650505050505050565b600080600080608085870312156141ac576141ab6137d9565b5b600085013567ffffffffffffffff8111156141ca576141c96137de565b5b6141d6878288016138fb565b945050602085013567ffffffffffffffff8111156141f7576141f66137de565b5b614203878288016138fb565b935050604085013567ffffffffffffffff811115614224576142236137de565b5b614230878288016138fb565b925050606085013567ffffffffffffffff811115614251576142506137de565b5b61425d878288016138fb565b91505092959194509250565b61427281613b2f565b82525050565b600060c083016000830151848203600086015261429582826139b8565b915050602083015184820360208601526142af82826139b8565b915050604083015184820360408601526142c982826139b8565b91505060608301516142de6060860182614269565b5060808301516142f160808601826139fb565b5060a083015161430460a0860182613a16565b508091505092915050565b600060208201905081810360008301526143298184614278565b905092915050565b60006020820190506143466000830184613b4b565b92915050565b600080600080600060a08688031215614368576143676137d9565b5b600086013567ffffffffffffffff811115614386576143856137de565b5b614392888289016138fb565b955050602086013567ffffffffffffffff8111156143b3576143b26137de565b5b6143bf888289016138fb565b945050604086013567ffffffffffffffff8111156143e0576143df6137de565b5b6143ec888289016138fb565b935050606086013567ffffffffffffffff81111561440d5761440c6137de565b5b614419888289016138fb565b925050608086013567ffffffffffffffff81111561443a576144396137de565b5b614446888289016138fb565b9150509295509295909350565b600060a083016000830151848203600086015261447082826139b8565b9150506020830151848203602086015261448a82826139b8565b915050604083015184820360408601526144a482826139b8565b91505060608301516144b960608601826139fb565b5060808301516144cc6080860182613a16565b508091505092915050565b600060208201905081810360008301526144f18184614453565b905092915050565b600080604083850312156145105761450f6137d9565b5b600083013567ffffffffffffffff81111561452e5761452d6137de565b5b61453a858286016138fb565b925050602061454b8582860161400b565b9150509250929050565b6000606082019050818103600083015261456f8186613af6565b905081810360208301526145838185613af6565b90506145926040830184613b4b565b949350505050565b600080604083850312156145b1576145b06137d9565b5b600083013567ffffffffffffffff8111156145cf576145ce6137de565b5b6145db858286016138fb565b925050602083013567ffffffffffffffff8111156145fc576145fb6137de565b5b614608858286016138fb565b9150509250929050565b600081905092915050565b600061462882613972565b6146328185614612565b935061464281856020860161398e565b80840191505092915050565b600061465a828461461d565b915081905092915050565b7f4e487b7100000000000000000000000000000000000000000000000000000000600052602260045260246000fd5b600060028204905060018216806146ac57607f821691505b6020821081036146bf576146be614665565b5b50919050565b7f526563697069656e742049442072657175697265640000000000000000000000600082015250565b60006146fb601583613ae5565b9150614706826146c5565b602082019050919050565b6000602082019050818103600083015261472a816146ee565b9050919050565b60008190508160005260206000209050919050565b60006020601f8301049050919050565b600082821b905092915050565b6000600883026147937fffffffffffffffffffffffffffffffffffffffffffffffffffffffffffffffff82614756565b61479d8683614756565b95508019841693508086168417925050509392505050565b6000819050919050565b60006147da6147d56147d0846139f1565b6147b5565b6139f1565b9050919050565b6000819050919050565b6147f4836147bf565b614808614800826147e1565b848454614763565b825550505050565b600090565b61481d614810565b6148288184846147eb565b505050565b5b8181101561484c57614841600082614815565b60018101905061482e565b5050565b601f8211156148915761486281614731565b61486b84614746565b8101602085101561487a578190505b61488e61488685614746565b83018261482d565b50505b505050565b600082821c905092915050565b60006148b460001984600802614896565b1980831691505092915050565b60006148cd83836148a3565b9150826002028217905092915050565b6148e682613972565b67ffffffffffffffff8111156148ff576148fe6137fe565b5b6149098254614694565b614914828285614850565b600060209050601f8311600181146149475760008415614935578287015190505b61493f85826148c1565b8655506149a7565b601f19841661495586614731565b60005b8281101561497d57848901518255600182019150602085019450602081019050614958565b8683101561499a5784890151614996601f8916826148a3565b8355505b6001600288020188555050505b505050505050565b600060808201905081810360008301526149c98187613af6565b905081810360208301526149dd8186613af6565b90506149ec6040830185613b3c565b6149f96060830184613b4b565b95945050505050565b7f4e487b7100000000000000000000000000000000000000000000000000000000600052603260045260246000fd5b60008154614a3e81614694565b614a488186614612565b94506001821660008114614a635760018114614a7857614aab565b60ff1983168652811515820286019350614aab565b614a8185614731565b60005b83811015614aa357815481890152600182019150602081019050614a84565b838801955050505b50505092915050565b6000614ac08284614a31565b915081905092915050565b7f4e487b7100000000000000000000000000000000000000000000000000000000600052601160045260246000fd5b6000614b05826139f1565b91507fffffffffffffffffffffffffffffffffffffffffffffffffffffffffffffffff8203614b3757614b36614acb565b5b600182019050919050565b7f446f6e6f72204944207265717569726564000000000000000000000000000000600082015250565b6000614b78601183613ae5565b9150614b8382614b42565b602082019050919050565b60006020820190508181036000830152614ba781614b6b565b9050919050565b7f5265676973746572656400000000000000000000000000000000000000000000600082015250565b6000614be4600a83613ae5565b9150614bef82614bae565b602082019050919050565b60006040820190508181036000830152614c1381614bd7565b9050614c226020830184613b4b565b92915050565b7f446f6e6f72206e6f742061637469766500000000000000000000000000000000600082015250565b6000614c5e601083613ae5565b9150614c6982614c28565b602082019050919050565b60006020820190508181036000830152614c8d81614c51565b9050919050565b7f526563697069656e74206e6f7420616374697665000000000000000000000000600082015250565b6000614cca601483613ae5565b9150614cd582614c94565b602082019050919050565b60006020820190508181036000830152614cf981614cbd565b9050919050565b600081905092915050565b60008190508160005260206000209050919050565b60008154614d2d81614694565b614d378186614d00565b94506001821660008114614d525760018114614d6757614d9a565b60ff1983168652811515820286019350614d9a565b614d7085614d0b565b60005b83811015614d9257815481890152600182019150602081019050614d73565b838801955050505b50505092915050565b6000614daf8284614d20565b915081905092915050565b7f4f7267616e2074797065206d69736d6174636800000000000000000000000000600082015250565b6000614df0601383613ae5565b9150614dfb82614dba565b602082019050919050565b60006020820190508181036000830152614e1f81614de3565b9050919050565b60006080820190508181036000830152614e408187613af6565b90508181036020830152614e548186613af6565b90508181036040830152614e688185613af6565b9050614e776060830184613b4b565b95945050505050565b7f416c6c6f63617465640000000000000000000000000000000000000000000000600082015250565b6000614eb6600983613ae5565b9150614ec182614e80565b602082019050919050565b60006040820190508181036000830152614ee581614ea9565b9050614ef46020830184613b4b565b92915050565b7f4e6f20636f6d70617469626c65206d6174636820666f756e6400000000000000600082015250565b6000614f30601983613ae5565b9150614f3b82614efa565b602082019050919050565b60006020820190508181036000830152614f5f81614f23565b9050919050565b7f6175746f5f000000000000000000000000000000000000000000000000000000600082015250565b6000614f9c600583614612565b9150614fa782614f66565b600582019050919050565b7f5f00000000000000000000000000000000000000000000000000000000000000600082015250565b6000614fe8600183614612565b9150614ff382614fb2565b600182019050919050565b600061500982614f8f565b9150615015828561461d565b915061502082614fdb565b915061502c828461461d565b91508190509392505050565b600060a08201905081810360008301526150528188613af6565b905081810360208301526150668187613af6565b9050818103604083015261507a8186613af6565b9050818103606083015261508e8185613af6565b905061509d6080830184613b4b565b9695505050505050565b600060408201905081810360008301526150c18185613af6565b90506150d06020830184613b4b565b9392505050565b7f416c726561647920636f6e6669726d6564000000000000000000000000000000600082015250565b600061510d601183613ae5565b9150615118826150d7565b602082019050919050565b6000602082019050818103600083015261513c81615100565b9050919050565b7f436f6d706c657465640000000000000000000000000000000000000000000000600082015250565b6000615179600983613ae5565b915061518482615143565b602082019050919050565b600060408201905081810360008301526151a88161516c565b90506151b76020830184613b4b565b9291505056fea2646970667358221220808a12ff3555969efc6eb909e66b37c94c05276cd3a88d665414549d200d90b164736f6c63430008140033",
  "linkReferences": {},
  "deployedLinkReferences": {}
}